{
  "contractName": "Ballot",
  "abi": [
    {
      "inputs": [
        {
          "internalType": "uint256",
          "name": "numProposals",
          "type": "uint256"
        }
      ],
      "payable": false,
      "stateMutability": "nonpayable",
      "type": "constructor"
    },
    {
      "constant": false,
      "inputs": [
        {
          "internalType": "address",
          "name": "voter",
          "type": "address"
        }
      ],
      "name": "register",
      "outputs": [],
      "payable": false,
      "stateMutability": "nonpayable",
      "type": "function"
    },
    {
      "constant": false,
      "inputs": [
        {
          "internalType": "uint256",
          "name": "toProposal",
          "type": "uint256"
        }
      ],
      "name": "vote",
      "outputs": [],
      "payable": false,
      "stateMutability": "nonpayable",
      "type": "function"
    },
    {
      "constant": true,
      "inputs": [],
      "name": "reqWinner",
      "outputs": [
        {
          "internalType": "uint256",
          "name": "winningProposal",
          "type": "uint256"
        }
      ],
      "payable": false,
      "stateMutability": "view",
      "type": "function"
    }
  ],
  "bytecode": "0x608060405234801561001057600080fd5b5060405161027b38038061027b8339818101604052602081101561003357600080fd5b810190808051906020019092919050505050610227806100546000396000f3fe608060405234801561001057600080fd5b50600436106100415760003560e01c80630121b93f146100465780634420e48614610074578063508b30c9146100b8575b600080fd5b6100726004803603602081101561005c57600080fd5b81019080803590602001909291905050506100d6565b005b6100b66004803603602081101561008a57600080fd5b81019080803573ffffffffffffffffffffffffffffffffffffffff169060200190929190505050610191565b005b6100c06101ed565b6040518082815260200191505060405180910390f35b6000600160003373ffffffffffffffffffffffffffffffffffffffff1673ffffffffffffffffffffffffffffffffffffffff168152602001908152602001600020600001541161018e576040517f08c379a00000000000000000000000000000000000000000000000000000000081526004018080602001828103825260168152602001807f4e6f742061205265676973746572656420566f7465720000000000000000000081525060200191505060405180910390fd5b50565b6000809054906101000a900473ffffffffffffffffffffffffffffffffffffffff1673ffffffffffffffffffffffffffffffffffffffff163373ffffffffffffffffffffffffffffffffffffffff16146101ea57600080fd5b50565b60009056fea265627a7a723158201b423bb201444588efe0c0b268887d15bc6b8a6bc823d4cace44b6a45972885d64736f6c63430005100032",
  "source": "pragma solidity >=0.4.22 <=0.6.0;\n\ncontract Ballot {\n    struct Voter {\n        uint256 weigth;\n    }\n\n    struct Proposal {\n        string name;\n    }\n\n    address chairperson;\n    mapping(address => Voter) voters;\n    Proposal[] proposals;\n\n    modifier onlyChair() {\n        require(msg.sender == chairperson);\n        _;\n    }\n\n    modifier validVoter() {\n        require(voters[msg.sender].weigth > 0, \"Not a Registered Voter\");\n        _;\n    }\n\n    constructor(uint256 numProposals) public {}\n\n    function register(address voter) public onlyChair {}\n\n    function vote(uint256 toProposal) public validVoter {}\n\n    function reqWinner() public view returns (uint256 winningProposal) {}\n}\n",
  "sourcePath": "/home/nrriquel/Documents/dapps/blockchainInAction/dappV1/Ballot-Dapp/ballot-contract/contracts/Ballot.sol",
  "compiler": {
    "name": "solc",
    "version": "0.5.16+commit.9c3226ce.Emscripten.clang"
  },
  "schemaVersion": "3.3.4",
  "updatedAt": "2021-04-04T23:19:43.968Z",
  "devdoc": {
    "methods": {}
  },
  "userdoc": {
    "methods": {}
  }
}