{
  "contractName": "Ballot",
  "abi": [
    {
      "inputs": [
        {
          "internalType": "bytes32[]",
          "name": "proposalNames",
          "type": "bytes32[]"
        }
      ],
      "stateMutability": "nonpayable",
      "type": "constructor"
    },
    {
      "inputs": [],
      "name": "chairperson",
      "outputs": [
        {
          "internalType": "address",
          "name": "",
          "type": "address"
        }
      ],
      "stateMutability": "view",
      "type": "function"
    },
    {
      "inputs": [
        {
          "internalType": "uint256",
          "name": "",
          "type": "uint256"
        }
      ],
      "name": "proposals",
      "outputs": [
        {
          "internalType": "bytes32",
          "name": "name",
          "type": "bytes32"
        },
        {
          "internalType": "uint256",
          "name": "voteCount",
          "type": "uint256"
        }
      ],
      "stateMutability": "view",
      "type": "function"
    },
    {
      "inputs": [
        {
          "internalType": "address",
          "name": "",
          "type": "address"
        }
      ],
      "name": "voters",
      "outputs": [
        {
          "internalType": "uint256",
          "name": "weight",
          "type": "uint256"
        },
        {
          "internalType": "bool",
          "name": "voted",
          "type": "bool"
        },
        {
          "internalType": "address",
          "name": "delegate",
          "type": "address"
        },
        {
          "internalType": "uint256",
          "name": "vote",
          "type": "uint256"
        }
      ],
      "stateMutability": "view",
      "type": "function"
    },
    {
      "inputs": [
        {
          "internalType": "address",
          "name": "voter",
          "type": "address"
        }
      ],
      "name": "giveRigthToVote",
      "outputs": [],
      "stateMutability": "nonpayable",
      "type": "function"
    },
    {
      "inputs": [
        {
          "internalType": "address",
          "name": "to",
          "type": "address"
        }
      ],
      "name": "delegate",
      "outputs": [],
      "stateMutability": "nonpayable",
      "type": "function"
    },
    {
      "inputs": [
        {
          "internalType": "uint256",
          "name": "proposal",
          "type": "uint256"
        }
      ],
      "name": "vote",
      "outputs": [],
      "stateMutability": "nonpayable",
      "type": "function"
    },
    {
      "inputs": [],
      "name": "winningProposal",
      "outputs": [
        {
          "internalType": "uint256",
          "name": "winningProposal",
          "type": "uint256"
        }
      ],
      "stateMutability": "view",
      "type": "function"
    },
    {
      "inputs": [],
      "name": "winnerName",
      "outputs": [
        {
          "internalType": "bytes32",
          "name": "winnerName_",
          "type": "bytes32"
        }
      ],
      "stateMutability": "view",
      "type": "function"
    }
  ],
  "bytecode": "0x60806040523480156200001157600080fd5b50604051620014273803806200142783398181016040528101906200003791906200025b565b336000806101000a81548173ffffffffffffffffffffffffffffffffffffffff021916908373ffffffffffffffffffffffffffffffffffffffff16021790555060018060008060009054906101000a900473ffffffffffffffffffffffffffffffffffffffff1673ffffffffffffffffffffffffffffffffffffffff1673ffffffffffffffffffffffffffffffffffffffff1681526020019081526020016000206000018190555060005b81518110156200019a576002604051806040016040528084848151811062000133577f4e487b7100000000000000000000000000000000000000000000000000000000600052603260045260246000fd5b6020026020010151815260200160008152509080600181540180825580915050600190039060005260206000209060020201600090919091909150600082015181600001556020820151816001015550508080620001919062000317565b915050620000e2565b5050620003dd565b6000620001b9620001b384620002d4565b620002a0565b90508083825260208201905082856020860282011115620001d957600080fd5b60005b858110156200020d5781620001f2888262000244565b845260208401935060208301925050600181019050620001dc565b5050509392505050565b600082601f8301126200022957600080fd5b81516200023b848260208601620001a2565b91505092915050565b6000815190506200025581620003c3565b92915050565b6000602082840312156200026e57600080fd5b600082015167ffffffffffffffff8111156200028957600080fd5b620002978482850162000217565b91505092915050565b6000604051905081810181811067ffffffffffffffff82111715620002ca57620002c962000394565b5b8060405250919050565b600067ffffffffffffffff821115620002f257620002f162000394565b5b602082029050602081019050919050565b6000819050919050565b6000819050919050565b600062000324826200030d565b91507fffffffffffffffffffffffffffffffffffffffffffffffffffffffffffffffff8214156200035a576200035962000365565b5b600182019050919050565b7f4e487b7100000000000000000000000000000000000000000000000000000000600052601160045260246000fd5b7f4e487b7100000000000000000000000000000000000000000000000000000000600052604160045260246000fd5b620003ce8162000303565b8114620003da57600080fd5b50565b61103a80620003ed6000396000f3fe608060405234801561001057600080fd5b50600436106100885760003560e01c8063609ff1bd1161005b578063609ff1bd14610114578063a3ec138d14610132578063ca199a6314610165578063e2ba53f01461018157610088565b80630121b93f1461008d578063013cf08b146100a95780632e4176cf146100da5780635c19a95c146100f8575b600080fd5b6100a760048036038101906100a29190610abb565b61019f565b005b6100c360048036038101906100be9190610abb565b61030c565b6040516100d1929190610d3c565b60405180910390f35b6100e2610340565b6040516100ef9190610d06565b60405180910390f35b610112600480360381019061010d9190610a92565b610364565b005b61011c610726565b6040516101299190610e45565b60405180910390f35b61014c60048036038101906101479190610a92565b6107fa565b60405161015c9493929190610e60565b60405180910390f35b61017f600480360381019061017a9190610a92565b610857565b005b610189610a0e565b6040516101969190610d21565b60405180910390f35b6000600160003373ffffffffffffffffffffffffffffffffffffffff1673ffffffffffffffffffffffffffffffffffffffff168152602001908152602001600020905060008160000154141561022a576040517f08c379a000000000000000000000000000000000000000000000000000000000815260040161022190610e05565b60405180910390fd5b8060010160009054906101000a900460ff161561027c576040517f08c379a000000000000000000000000000000000000000000000000000000000815260040161027390610dc5565b60405180910390fd5b60018160010160006101000a81548160ff0219169083151502179055508181600201819055508060000154600283815481106102e1577f4e487b7100000000000000000000000000000000000000000000000000000000600052603260045260246000fd5b906000526020600020906002020160010160008282546103019190610eb6565b925050819055505050565b6002818154811061031c57600080fd5b90600052602060002090600202016000915090508060000154908060010154905082565b60008054906101000a900473ffffffffffffffffffffffffffffffffffffffff1681565b6000600160003373ffffffffffffffffffffffffffffffffffffffff1673ffffffffffffffffffffffffffffffffffffffff16815260200190815260200160002090508060010160009054906101000a900460ff16156103f9576040517f08c379a00000000000000000000000000000000000000000000000000000000081526004016103f090610da5565b60405180910390fd5b3373ffffffffffffffffffffffffffffffffffffffff168273ffffffffffffffffffffffffffffffffffffffff161415610468576040517f08c379a000000000000000000000000000000000000000000000000000000000815260040161045f90610de5565b60405180910390fd5b5b600073ffffffffffffffffffffffffffffffffffffffff16600160008473ffffffffffffffffffffffffffffffffffffffff1673ffffffffffffffffffffffffffffffffffffffff16815260200190815260200160002060010160019054906101000a900473ffffffffffffffffffffffffffffffffffffffff1673ffffffffffffffffffffffffffffffffffffffff16146105d857600160008373ffffffffffffffffffffffffffffffffffffffff1673ffffffffffffffffffffffffffffffffffffffff16815260200190815260200160002060010160019054906101000a900473ffffffffffffffffffffffffffffffffffffffff1691503373ffffffffffffffffffffffffffffffffffffffff168273ffffffffffffffffffffffffffffffffffffffff1614156105d3576040517f08c379a00000000000000000000000000000000000000000000000000000000081526004016105ca90610e25565b60405180910390fd5b610469565b60018160010160006101000a81548160ff021916908315150217905550818160010160016101000a81548173ffffffffffffffffffffffffffffffffffffffff021916908373ffffffffffffffffffffffffffffffffffffffff1602179055506000600160008473ffffffffffffffffffffffffffffffffffffffff1673ffffffffffffffffffffffffffffffffffffffff16815260200190815260200160002090508060010160009054906101000a900460ff161561070157816000015460028260020154815481106106d5577f4e487b7100000000000000000000000000000000000000000000000000000000600052603260045260246000fd5b906000526020600020906002020160010160008282546106f59190610eb6565b92505081905550610721565b81600001548160000160008282546107199190610eb6565b925050819055505b505050565b6000806000905060005b6002805490508110156107f5578160028281548110610778577f4e487b7100000000000000000000000000000000000000000000000000000000600052603260045260246000fd5b90600052602060002090600202016001015411156107e257600281815481106107ca577f4e487b7100000000000000000000000000000000000000000000000000000000600052603260045260246000fd5b90600052602060002090600202016001015491508092505b80806107ed90610f5e565b915050610730565b505090565b60016020528060005260406000206000915090508060000154908060010160009054906101000a900460ff16908060010160019054906101000a900473ffffffffffffffffffffffffffffffffffffffff16908060020154905084565b60008054906101000a900473ffffffffffffffffffffffffffffffffffffffff1673ffffffffffffffffffffffffffffffffffffffff163373ffffffffffffffffffffffffffffffffffffffff16146108e5576040517f08c379a00000000000000000000000000000000000000000000000000000000081526004016108dc90610d65565b60405180910390fd5b600160008273ffffffffffffffffffffffffffffffffffffffff1673ffffffffffffffffffffffffffffffffffffffff16815260200190815260200160002060010160009054906101000a900460ff1615610975576040517f08c379a000000000000000000000000000000000000000000000000000000000815260040161096c90610d85565b60405180910390fd5b6000600160008373ffffffffffffffffffffffffffffffffffffffff1673ffffffffffffffffffffffffffffffffffffffff16815260200190815260200160002060000154146109c457600080fd5b60018060008373ffffffffffffffffffffffffffffffffffffffff1673ffffffffffffffffffffffffffffffffffffffff1681526020019081526020016000206000018190555050565b60006002610a1a610726565b81548110610a51577f4e487b7100000000000000000000000000000000000000000000000000000000600052603260045260246000fd5b906000526020600020906002020160000154905090565b600081359050610a7781610fd6565b92915050565b600081359050610a8c81610fed565b92915050565b600060208284031215610aa457600080fd5b6000610ab284828501610a68565b91505092915050565b600060208284031215610acd57600080fd5b6000610adb84828501610a7d565b91505092915050565b610aed81610f0c565b82525050565b610afc81610f1e565b82525050565b610b0b81610f2a565b82525050565b6000610b1e602783610ea5565b91507f4f6e6c79206368616972706572736f6e2063616e20676976652072696768742060008301527f746f20766f7465000000000000000000000000000000000000000000000000006020830152604082019050919050565b6000610b84601783610ea5565b91507f54686520766f74657220616c726561647920766f7465640000000000000000006000830152602082019050919050565b6000610bc4601183610ea5565b91507f596f7520616c726561647920766f7465640000000000000000000000000000006000830152602082019050919050565b6000610c04600d83610ea5565b91507f416c726561647920766f746564000000000000000000000000000000000000006000830152602082019050919050565b6000610c44601d83610ea5565b91507f53656c662d64656c65676174696f6e20697320646973616c6c6f7765640000006000830152602082019050919050565b6000610c84601483610ea5565b91507f486173206e6f20726967746820746f20766f74650000000000000000000000006000830152602082019050919050565b6000610cc4601883610ea5565b91507f466f756e64206c6f6f7020696e2064656c65676174696f6e00000000000000006000830152602082019050919050565b610d0081610f54565b82525050565b6000602082019050610d1b6000830184610ae4565b92915050565b6000602082019050610d366000830184610b02565b92915050565b6000604082019050610d516000830185610b02565b610d5e6020830184610cf7565b9392505050565b60006020820190508181036000830152610d7e81610b11565b9050919050565b60006020820190508181036000830152610d9e81610b77565b9050919050565b60006020820190508181036000830152610dbe81610bb7565b9050919050565b60006020820190508181036000830152610dde81610bf7565b9050919050565b60006020820190508181036000830152610dfe81610c37565b9050919050565b60006020820190508181036000830152610e1e81610c77565b9050919050565b60006020820190508181036000830152610e3e81610cb7565b9050919050565b6000602082019050610e5a6000830184610cf7565b92915050565b6000608082019050610e756000830187610cf7565b610e826020830186610af3565b610e8f6040830185610ae4565b610e9c6060830184610cf7565b95945050505050565b600082825260208201905092915050565b6000610ec182610f54565b9150610ecc83610f54565b9250827fffffffffffffffffffffffffffffffffffffffffffffffffffffffffffffffff03821115610f0157610f00610fa7565b5b828201905092915050565b6000610f1782610f34565b9050919050565b60008115159050919050565b6000819050919050565b600073ffffffffffffffffffffffffffffffffffffffff82169050919050565b6000819050919050565b6000610f6982610f54565b91507fffffffffffffffffffffffffffffffffffffffffffffffffffffffffffffffff821415610f9c57610f9b610fa7565b5b600182019050919050565b7f4e487b7100000000000000000000000000000000000000000000000000000000600052601160045260246000fd5b610fdf81610f0c565b8114610fea57600080fd5b50565b610ff681610f54565b811461100157600080fd5b5056fea26469706673582212200249768f6210282b97411305f9f790f1a12e5fd6057d981c23ca06a3525b1a0464736f6c63430008000033",
  "immutableReferences": {},
  "source": "pragma solidity ^0.8.0;\n\ncontract Ballot {\n    struct Voter {\n        uint256 weight;\n        bool voted;\n        address delegate; // person delegated to\n        uint256 vote;\n    }\n\n    struct Proposal {\n        bytes32 name; // short name\n        uint256 voteCount; // number of accumulated votes\n    }\n\n    address public chairperson; // this address is not payable\n\n    // this declares a state variable\n    // stores a Voter for each posible address\n    mapping(address => Voter) public voters;\n\n    // Dynamically sized array of proposals\n    Proposal[] public proposals;\n\n    constructor(bytes32[] memory proposalNames) {\n        chairperson = msg.sender;\n        voters[chairperson].weight = 1;\n\n        // for each of the provided proposals names\n        // create a new proposal object and add it\n        // to the end of the array\n\n        for (uint256 i = 0; i < proposalNames.length; i++) {\n            proposals.push(Proposal({name: proposalNames[i], voteCount: 0}));\n        }\n    }\n\n    // Give a voter the right to vote on this ballot\n    // it could only be called by chairperson\n    function giveRigthToVote(address voter) public {\n        require(\n            msg.sender == chairperson,\n            \"Only chairperson can give right to vote\"\n        );\n\n        require(!voters[voter].voted, \"The voter already voted\");\n\n        require(voters[voter].weight == 0);\n        voters[voter].weight = 1;\n    }\n\n    function delegate(address to) public {\n        // asigns a reference\n        Voter storage sender = voters[msg.sender];\n        require(!sender.voted, \"You already voted\");\n        require(to != msg.sender, \"Self-delegation is disallowed\");\n\n        while (voters[to].delegate != address(0)) {\n            to = voters[to].delegate;\n\n            // we found a loop in the delegation, not allowed\n            require(to != msg.sender, \"Found loop in delegation\");\n        }\n\n        // since sender is a reference this\n        // modifies voters[msg.sender].voted]\n        sender.voted = true;\n        sender.delegate = to;\n        Voter storage delegate_ = voters[to];\n\n        if (delegate_.voted) {\n            // if the delegate already voted\n            // directly add to the number of votes\n            proposals[delegate_.vote].voteCount += sender.weight;\n        } else {\n            delegate_.weight += sender.weight;\n        }\n    }\n\n    // give your vote (including votes delegated to you)\n    // to proposals[proposal].name\n\n    function vote(uint256 proposal) public {\n        Voter storage sender = voters[msg.sender];\n        require(sender.weight != 0, \"Has no rigth to vote\");\n        require(!sender.voted, \"Already voted\");\n        sender.voted = true;\n        sender.vote = proposal;\n\n        proposals[proposal].voteCount += sender.weight;\n    }\n\n    ///@dev computes the winning proposal taking all\n    /// previous votes into account\n    function winningProposal() public view returns (uint256 winningProposal) {\n        uint256 winningVoteCount = 0;\n\n        for (uint256 p = 0; p < proposals.length; p++) {\n            if (proposals[p].voteCount > winningVoteCount) {\n                winningVoteCount = proposals[p].voteCount;\n                winningProposal = p;\n            }\n        }\n    }\n\n    // calls the winningProposal() function to get the index\n    // of the winner contained in the proposals array and then\n    // returns the name of the winner\n\n    function winnerName() public view returns (bytes32 winnerName_) {\n        winnerName_ = proposals[winningProposal()].name;\n    }\n}\n",
  "sourcePath": "/home/nrriquel/Documents/dapps/BIA/contractsTest/contracts/Ballot.sol",
  "compiler": {
    "name": "solc",
    "version": "0.8.0+commit.c7dfd78e.Emscripten.clang"
  },
  "schemaVersion": "3.3.4",
  "updatedAt": "2021-04-11T04:24:33.536Z",
  "devdoc": {
    "kind": "dev",
    "methods": {
      "winningProposal()": {
        "details": "computes the winning proposal taking all previous votes into account"
      }
    },
    "version": 1
  },
  "userdoc": {
    "kind": "user",
    "methods": {},
    "version": 1
  }
}