{
  "contractName": "ClientReceipt",
  "abi": [
    {
      "anonymous": false,
      "inputs": [
        {
          "indexed": false,
          "internalType": "address",
          "name": "_from",
          "type": "address"
        },
        {
          "indexed": false,
          "internalType": "string",
          "name": "id",
          "type": "string"
        },
        {
          "indexed": false,
          "internalType": "uint256",
          "name": "value",
          "type": "uint256"
        }
      ],
      "name": "Deposit",
      "type": "event"
    },
    {
      "inputs": [
        {
          "internalType": "string",
          "name": "id",
          "type": "string"
        }
      ],
      "name": "deposit",
      "outputs": [],
      "stateMutability": "payable",
      "type": "function"
    }
  ],
  "bytecode": "0x608060405234801561001057600080fd5b5061032c806100206000396000f3fe60806040526004361061001e5760003560e01c8063a26e118614610023575b600080fd5b61003d600480360381019061003891906100e5565b61003f565b005b7f2d4b597935f3cd67fb2eebf1db4debc934cee5c7baa7153f980fdbeb2e74084e3382346040516100729392919061017d565b60405180910390a150565b600061009061008b846101ec565b6101bb565b9050828152602081018484840111156100a857600080fd5b6100b3848285610274565b509392505050565b600082601f8301126100cc57600080fd5b81356100dc84826020860161007d565b91505092915050565b6000602082840312156100f757600080fd5b600082013567ffffffffffffffff81111561011157600080fd5b61011d848285016100bb565b91505092915050565b61012f81610238565b82525050565b60006101408261021c565b61014a8185610227565b935061015a818560208601610283565b610163816102e5565b840191505092915050565b6101778161026a565b82525050565b60006060820190506101926000830186610126565b81810360208301526101a48185610135565b90506101b3604083018461016e565b949350505050565b6000604051905081810181811067ffffffffffffffff821117156101e2576101e16102b6565b5b8060405250919050565b600067ffffffffffffffff821115610207576102066102b6565b5b601f19601f8301169050602081019050919050565b600081519050919050565b600082825260208201905092915050565b60006102438261024a565b9050919050565b600073ffffffffffffffffffffffffffffffffffffffff82169050919050565b6000819050919050565b82818337600083830152505050565b60005b838110156102a1578082015181840152602081019050610286565b838111156102b0576000848401525b50505050565b7f4e487b7100000000000000000000000000000000000000000000000000000000600052604160045260246000fd5b6000601f19601f830116905091905056fea2646970667358221220ac38af6f674feb2c042ab2a2a360824216ac257667cfcf693d3f61d2b8debef664736f6c63430008000033",
  "immutableReferences": {},
  "source": "pragma solidity >=0.4.16 <0.9.0;\n\ncontract ClientReceipt {\n    event Deposit(address _from, string id, uint256 value);\n\n    function deposit(string memory id) public payable {\n        emit Deposit(msg.sender, id, msg.value);\n    }\n}\n",
  "sourcePath": "/home/nrriquel/Documents/dapps/BIA/contractsTest/contracts/Events.sol",
  "compiler": {
    "name": "solc",
    "version": "0.8.0+commit.c7dfd78e.Emscripten.clang"
  },
  "schemaVersion": "3.3.4",
  "updatedAt": "2021-04-11T04:24:33.540Z",
  "devdoc": {
    "kind": "dev",
    "methods": {},
    "version": 1
  },
  "userdoc": {
    "kind": "user",
    "methods": {},
    "version": 1
  }
}