{
  "contractName": "OwnedToken",
  "abi": [
    {
      "inputs": [
        {
          "internalType": "string",
          "name": "_name",
          "type": "string"
        }
      ],
      "stateMutability": "nonpayable",
      "type": "constructor"
    },
    {
      "anonymous": false,
      "inputs": [
        {
          "indexed": false,
          "internalType": "address",
          "name": "",
          "type": "address"
        },
        {
          "indexed": false,
          "internalType": "uint256",
          "name": "",
          "type": "uint256"
        }
      ],
      "name": "Received",
      "type": "event"
    },
    {
      "inputs": [],
      "name": "name",
      "outputs": [
        {
          "internalType": "string",
          "name": "",
          "type": "string"
        }
      ],
      "stateMutability": "view",
      "type": "function"
    },
    {
      "inputs": [],
      "name": "owner",
      "outputs": [
        {
          "internalType": "address",
          "name": "",
          "type": "address"
        }
      ],
      "stateMutability": "view",
      "type": "function"
    },
    {
      "stateMutability": "payable",
      "type": "receive"
    },
    {
      "inputs": [
        {
          "internalType": "string",
          "name": "newName",
          "type": "string"
        }
      ],
      "name": "changeName",
      "outputs": [],
      "stateMutability": "nonpayable",
      "type": "function"
    },
    {
      "inputs": [],
      "name": "getString",
      "outputs": [
        {
          "internalType": "bytes32",
          "name": "s",
          "type": "bytes32"
        }
      ],
      "stateMutability": "view",
      "type": "function"
    }
  ],
  "bytecode": "0x60806040523480156200001157600080fd5b5060405162000b1738038062000b178339818101604052810190620000379190620001b9565b336000806101000a81548173ffffffffffffffffffffffffffffffffffffffff021916908373ffffffffffffffffffffffffffffffffffffffff16021790555080600190805190602001906200008f92919062000097565b50506200032f565b828054620000a5906200029b565b90600052602060002090601f016020900481019282620000c9576000855562000115565b82601f10620000e457805160ff191683800117855562000115565b8280016001018555821562000115579182015b8281111562000114578251825591602001919060010190620000f7565b5b50905062000124919062000128565b5090565b5b808211156200014357600081600090555060010162000129565b5090565b60006200015e620001588462000232565b620001fe565b9050828152602081018484840111156200017757600080fd5b6200018484828562000265565b509392505050565b600082601f8301126200019e57600080fd5b8151620001b084826020860162000147565b91505092915050565b600060208284031215620001cc57600080fd5b600082015167ffffffffffffffff811115620001e757600080fd5b620001f5848285016200018c565b91505092915050565b6000604051905081810181811067ffffffffffffffff8211171562000228576200022762000300565b5b8060405250919050565b600067ffffffffffffffff82111562000250576200024f62000300565b5b601f19601f8301169050602081019050919050565b60005b838110156200028557808201518184015260208101905062000268565b8381111562000295576000848401525b50505050565b60006002820490506001821680620002b457607f821691505b60208210811415620002cb57620002ca620002d1565b5b50919050565b7f4e487b7100000000000000000000000000000000000000000000000000000000600052602260045260246000fd5b7f4e487b7100000000000000000000000000000000000000000000000000000000600052604160045260246000fd5b6107d8806200033f6000396000f3fe6080604052600436106100435760003560e01c806306fdde03146100885780635353a2d8146100b357806389ea642f146100dc5780638da5cb5b1461010757610083565b36610083577f88a5966d370b9919b20f3e2c13ff65706f196a4e32cc2c12bf57088f885258743334604051610079929190610576565b60405180910390a1005b600080fd5b34801561009457600080fd5b5061009d610132565b6040516100aa91906105ba565b60405180910390f35b3480156100bf57600080fd5b506100da60048036038101906100d5919061044e565b6101c0565b005b3480156100e857600080fd5b506100f1610268565b6040516100fe919061059f565b60405180910390f35b34801561011357600080fd5b5061011c61031f565b604051610129919061055b565b60405180910390f35b6001805461013f90610701565b80601f016020809104026020016040519081016040528092919081815260200182805461016b90610701565b80156101b85780601f1061018d576101008083540402835291602001916101b8565b820191906000526020600020905b81548152906001019060200180831161019b57829003601f168201915b505050505081565b60008054906101000a900473ffffffffffffffffffffffffffffffffffffffff1673ffffffffffffffffffffffffffffffffffffffff163373ffffffffffffffffffffffffffffffffffffffff161461024e576040517f08c379a0000000000000000000000000000000000000000000000000000000008152600401610245906105dc565b60405180910390fd5b8060019080519060200190610264929190610343565b5050565b60008060009054906101000a900473ffffffffffffffffffffffffffffffffffffffff1673ffffffffffffffffffffffffffffffffffffffff163373ffffffffffffffffffffffffffffffffffffffff16146102f9576040517f08c379a00000000000000000000000000000000000000000000000000000000081526004016102f0906105dc565b60405180910390fd5b7fd493fbb10b43238bc98719413741c2c4141f475cb50763d6d1b8f742e3999f59905090565b60008054906101000a900473ffffffffffffffffffffffffffffffffffffffff1681565b82805461034f90610701565b90600052602060002090601f01602090048101928261037157600085556103b8565b82601f1061038a57805160ff19168380011785556103b8565b828001600101855582156103b8579182015b828111156103b757825182559160200191906001019061039c565b5b5090506103c591906103c9565b5090565b5b808211156103e25760008160009055506001016103ca565b5090565b60006103f96103f48461062d565b6105fc565b90508281526020810184848401111561041157600080fd5b61041c8482856106bf565b509392505050565b600082601f83011261043557600080fd5b81356104458482602086016103e6565b91505092915050565b60006020828403121561046057600080fd5b600082013567ffffffffffffffff81111561047a57600080fd5b61048684828501610424565b91505092915050565b61049881610679565b82525050565b6104a78161068b565b82525050565b60006104b88261065d565b6104c28185610668565b93506104d28185602086016106ce565b6104db81610791565b840191505092915050565b60006104f3602183610668565b91507f4f6e6c79206f776e65722063616e2063616c6c20746869732066756e6374696f60008301527f6e000000000000000000000000000000000000000000000000000000000000006020830152604082019050919050565b610555816106b5565b82525050565b6000602082019050610570600083018461048f565b92915050565b600060408201905061058b600083018561048f565b610598602083018461054c565b9392505050565b60006020820190506105b4600083018461049e565b92915050565b600060208201905081810360008301526105d481846104ad565b905092915050565b600060208201905081810360008301526105f5816104e6565b9050919050565b6000604051905081810181811067ffffffffffffffff8211171561062357610622610762565b5b8060405250919050565b600067ffffffffffffffff82111561064857610647610762565b5b601f19601f8301169050602081019050919050565b600081519050919050565b600082825260208201905092915050565b600061068482610695565b9050919050565b6000819050919050565b600073ffffffffffffffffffffffffffffffffffffffff82169050919050565b6000819050919050565b82818337600083830152505050565b60005b838110156106ec5780820151818401526020810190506106d1565b838111156106fb576000848401525b50505050565b6000600282049050600182168061071957607f821691505b6020821081141561072d5761072c610733565b5b50919050565b7f4e487b7100000000000000000000000000000000000000000000000000000000600052602260045260246000fd5b7f4e487b7100000000000000000000000000000000000000000000000000000000600052604160045260246000fd5b6000601f19601f830116905091905056fea26469706673582212204107a2eb4cd3f6daa92cc891c763ebc42f13054013c0127b2246b3df29cc05d864736f6c63430008000033",
  "immutableReferences": {},
  "source": "pragma solidity >=0.4.16 <0.9.0;\n\ncontract OwnedToken {\n    address public owner;\n    string public name;\n\n    bytes32 constant myHash = keccak256(\"PEO\");\n\n    constructor(string memory _name) public {\n        owner = msg.sender;\n        name = _name;\n    }\n\n    modifier onlyOwner {\n        require(msg.sender == owner, \"Only owner can call this function\");\n        _;\n    }\n\n    function changeName(string memory newName) public onlyOwner {\n        name = newName;\n    }\n\n    function getString() public view onlyOwner returns (bytes32 s) {\n        return myHash;\n    }\n\n    event Received(address, uint256);\n\n    receive() external payable {\n        emit Received(msg.sender, msg.value);\n    }\n}\n",
  "sourcePath": "/home/nrriquel/Documents/dapps/BIA/contractsTest/contracts/test3.sol",
  "compiler": {
    "name": "solc",
    "version": "0.8.0+commit.c7dfd78e.Emscripten.clang"
  },
  "schemaVersion": "3.3.4",
  "updatedAt": "2021-04-11T04:24:33.547Z",
  "devdoc": {
    "kind": "dev",
    "methods": {},
    "version": 1
  },
  "userdoc": {
    "kind": "user",
    "methods": {},
    "version": 1
  }
}