{
  "contractName": "Test",
  "abi": [
    {
      "inputs": [],
      "stateMutability": "nonpayable",
      "type": "constructor"
    },
    {
      "inputs": [],
      "name": "chairperson",
      "outputs": [
        {
          "internalType": "address",
          "name": "",
          "type": "address"
        }
      ],
      "stateMutability": "view",
      "type": "function"
    },
    {
      "inputs": [
        {
          "internalType": "uint256",
          "name": "",
          "type": "uint256"
        }
      ],
      "name": "personData",
      "outputs": [
        {
          "internalType": "address",
          "name": "",
          "type": "address"
        }
      ],
      "stateMutability": "view",
      "type": "function"
    },
    {
      "inputs": [],
      "name": "getChairPerson",
      "outputs": [
        {
          "internalType": "address",
          "name": "chair_",
          "type": "address"
        }
      ],
      "stateMutability": "view",
      "type": "function"
    },
    {
      "inputs": [
        {
          "internalType": "address",
          "name": "addr",
          "type": "address"
        },
        {
          "internalType": "uint32",
          "name": "_age",
          "type": "uint32"
        },
        {
          "internalType": "string",
          "name": "_name",
          "type": "string"
        },
        {
          "internalType": "string",
          "name": "_lastname",
          "type": "string"
        },
        {
          "internalType": "string",
          "name": "_email",
          "type": "string"
        },
        {
          "internalType": "bool",
          "name": "_married",
          "type": "bool"
        }
      ],
      "name": "setPerson",
      "outputs": [],
      "stateMutability": "nonpayable",
      "type": "function"
    },
    {
      "inputs": [
        {
          "internalType": "address",
          "name": "addr",
          "type": "address"
        }
      ],
      "name": "getPersonNameAndLastname",
      "outputs": [
        {
          "internalType": "string",
          "name": "name",
          "type": "string"
        },
        {
          "internalType": "string",
          "name": "lastname",
          "type": "string"
        }
      ],
      "stateMutability": "view",
      "type": "function"
    },
    {
      "inputs": [
        {
          "internalType": "address",
          "name": "addr",
          "type": "address"
        }
      ],
      "name": "getAge",
      "outputs": [
        {
          "internalType": "uint32",
          "name": "age",
          "type": "uint32"
        }
      ],
      "stateMutability": "view",
      "type": "function"
    }
  ],
  "bytecode": "0x608060405234801561001057600080fd5b50336000806101000a81548173ffffffffffffffffffffffffffffffffffffffff021916908373ffffffffffffffffffffffffffffffffffffffff160217905550610aa7806100606000396000f3fe608060405234801561001057600080fd5b50600436106100625760003560e01c80632e4176cf14610067578063342e349a1461008557806338451598146100a15780635ff2bc20146100d157806381eec0e2146101025780639e7e2b0914610132575b600080fd5b61006f610150565b60405161007c9190610778565b60405180910390f35b61009f600480360381019061009a9190610627565b610174565b005b6100bb60048036038101906100b691906105fe565b610266565b6040516100c891906107ca565b60405180910390f35b6100eb60048036038101906100e691906105fe565b6102c7565b6040516100f9929190610793565b60405180910390f35b61011c600480360381019061011791906106f8565b610437565b6040516101299190610778565b60405180910390f35b61013a610476565b6040516101479190610778565b60405180910390f35b60008054906101000a900473ffffffffffffffffffffffffffffffffffffffff1681565b6000600260008154809291906101899061092e565b9190505590506000600160008973ffffffffffffffffffffffffffffffffffffffff1673ffffffffffffffffffffffffffffffffffffffff1681526020019081526020016000209050868160000160006101000a81548163ffffffff021916908363ffffffff1602179055508581600101908051906020019061020d92919061049f565b508481600201908051906020019061022692919061049f565b508381600301908051906020019061023f92919061049f565b50828160040160006101000a81548160ff0219169083151502179055505050505050505050565b600080600160008473ffffffffffffffffffffffffffffffffffffffff1673ffffffffffffffffffffffffffffffffffffffff16815260200190815260200160002090508060000160009054906101000a900463ffffffff16915050919050565b6060806000600160008573ffffffffffffffffffffffffffffffffffffffff1673ffffffffffffffffffffffffffffffffffffffff16815260200190815260200160002090508060010181600201818054610321906108fc565b80601f016020809104026020016040519081016040528092919081815260200182805461034d906108fc565b801561039a5780601f1061036f5761010080835404028352916020019161039a565b820191906000526020600020905b81548152906001019060200180831161037d57829003601f168201915b505050505091508080546103ad906108fc565b80601f01602080910402602001604051908101604052809291908181526020018280546103d9906108fc565b80156104265780601f106103fb57610100808354040283529160200191610426565b820191906000526020600020905b81548152906001019060200180831161040957829003601f168201915b505050505090509250925050915091565b6003818154811061044757600080fd5b906000526020600020016000915054906101000a900473ffffffffffffffffffffffffffffffffffffffff1681565b60008060009054906101000a900473ffffffffffffffffffffffffffffffffffffffff16905090565b8280546104ab906108fc565b90600052602060002090601f0160209004810192826104cd5760008555610514565b82601f106104e657805160ff1916838001178555610514565b82800160010185558215610514579182015b828111156105135782518255916020019190600101906104f8565b5b5090506105219190610525565b5090565b5b8082111561053e576000816000905550600101610526565b5090565b600061055561055084610816565b6107e5565b90508281526020810184848401111561056d57600080fd5b6105788482856108ba565b509392505050565b60008135905061058f81610a15565b92915050565b6000813590506105a481610a2c565b92915050565b600082601f8301126105bb57600080fd5b81356105cb848260208601610542565b91505092915050565b6000813590506105e381610a43565b92915050565b6000813590506105f881610a5a565b92915050565b60006020828403121561061057600080fd5b600061061e84828501610580565b91505092915050565b60008060008060008060c0878903121561064057600080fd5b600061064e89828a01610580565b965050602061065f89828a016105e9565b955050604087013567ffffffffffffffff81111561067c57600080fd5b61068889828a016105aa565b945050606087013567ffffffffffffffff8111156106a557600080fd5b6106b189828a016105aa565b935050608087013567ffffffffffffffff8111156106ce57600080fd5b6106da89828a016105aa565b92505060a06106eb89828a01610595565b9150509295509295509295565b60006020828403121561070a57600080fd5b6000610718848285016105d4565b91505092915050565b61072a81610862565b82525050565b600061073b82610846565b6107458185610851565b93506107558185602086016108c9565b61075e81610a04565b840191505092915050565b610772816108aa565b82525050565b600060208201905061078d6000830184610721565b92915050565b600060408201905081810360008301526107ad8185610730565b905081810360208301526107c18184610730565b90509392505050565b60006020820190506107df6000830184610769565b92915050565b6000604051905081810181811067ffffffffffffffff8211171561080c5761080b6109d5565b5b8060405250919050565b600067ffffffffffffffff821115610831576108306109d5565b5b601f19601f8301169050602081019050919050565b600081519050919050565b600082825260208201905092915050565b600061086d82610880565b9050919050565b60008115159050919050565b600073ffffffffffffffffffffffffffffffffffffffff82169050919050565b6000819050919050565b600063ffffffff82169050919050565b82818337600083830152505050565b60005b838110156108e75780820151818401526020810190506108cc565b838111156108f6576000848401525b50505050565b6000600282049050600182168061091457607f821691505b60208210811415610928576109276109a6565b5b50919050565b6000610939826108a0565b91507fffffffffffffffffffffffffffffffffffffffffffffffffffffffffffffffff82141561096c5761096b610977565b5b600182019050919050565b7f4e487b7100000000000000000000000000000000000000000000000000000000600052601160045260246000fd5b7f4e487b7100000000000000000000000000000000000000000000000000000000600052602260045260246000fd5b7f4e487b7100000000000000000000000000000000000000000000000000000000600052604160045260246000fd5b6000601f19601f8301169050919050565b610a1e81610862565b8114610a2957600080fd5b50565b610a3581610874565b8114610a4057600080fd5b50565b610a4c816108a0565b8114610a5757600080fd5b50565b610a63816108aa565b8114610a6e57600080fd5b5056fea264697066735822122062cbcf47531e416828b30ef190d97166b013577209f8a9c9ef284f2d2130212264736f6c63430008000033",
  "immutableReferences": {},
  "source": "pragma solidity >=0.4.16 <0.9.0;\n\ncontract Test {\n    address public chairperson;\n\n    struct Person {\n        uint32 age;\n        string name;\n        string lastname;\n        string email;\n        bool married;\n    }\n\n    mapping(address => Person) persons;\n    uint256 numPerson;\n    address[] public personData;\n\n    constructor() public {\n        chairperson = msg.sender;\n    }\n\n    function getChairPerson() public view returns (address chair_) {\n        chair_ = chairperson;\n    }\n\n    function setPerson(\n        address addr,\n        uint32 _age,\n        string memory _name,\n        string memory _lastname,\n        string memory _email,\n        bool _married\n    ) public {\n        uint256 personId = numPerson++;\n        Person storage p = persons[addr];\n        p.age = _age;\n        p.name = _name;\n        p.lastname = _lastname;\n        p.email = _email;\n        p.married = _married;\n    }\n\n    // you cannot return compound types\n    function getPersonNameAndLastname(address addr)\n        public\n        view\n        returns (string memory name, string memory lastname)\n    {\n        Person storage p = persons[addr];\n        return (p.name, p.lastname);\n    }\n\n    function getAge(address addr) public view returns (uint32 age) {\n        Person storage p = persons[addr];\n        return p.age;\n    }\n}\n",
  "sourcePath": "/home/nrriquel/Documents/dapps/BIA/contractsTest/contracts/test1.sol",
  "compiler": {
    "name": "solc",
    "version": "0.8.0+commit.c7dfd78e.Emscripten.clang"
  },
  "schemaVersion": "3.3.4",
  "updatedAt": "2021-04-11T04:24:33.541Z",
  "devdoc": {
    "kind": "dev",
    "methods": {},
    "version": 1
  },
  "userdoc": {
    "kind": "user",
    "methods": {},
    "version": 1
  }
}