{
  "contractName": "Test2",
  "abi": [
    {
      "inputs": [
        {
          "internalType": "address",
          "name": "",
          "type": "address"
        }
      ],
      "name": "balances",
      "outputs": [
        {
          "internalType": "uint256",
          "name": "",
          "type": "uint256"
        }
      ],
      "stateMutability": "view",
      "type": "function"
    },
    {
      "inputs": [
        {
          "internalType": "address",
          "name": "",
          "type": "address"
        }
      ],
      "name": "personSkills",
      "outputs": [
        {
          "internalType": "bytes",
          "name": "listOfSkills",
          "type": "bytes"
        }
      ],
      "stateMutability": "view",
      "type": "function"
    },
    {
      "inputs": [
        {
          "internalType": "address",
          "name": "",
          "type": "address"
        }
      ],
      "name": "persons",
      "outputs": [
        {
          "internalType": "uint256",
          "name": "age",
          "type": "uint256"
        },
        {
          "internalType": "string",
          "name": "name",
          "type": "string"
        },
        {
          "internalType": "string",
          "name": "lastname",
          "type": "string"
        },
        {
          "internalType": "string",
          "name": "email",
          "type": "string"
        },
        {
          "internalType": "bool",
          "name": "married",
          "type": "bool"
        }
      ],
      "stateMutability": "view",
      "type": "function"
    },
    {
      "inputs": [
        {
          "internalType": "uint256",
          "name": "newBalance",
          "type": "uint256"
        }
      ],
      "name": "update",
      "outputs": [],
      "stateMutability": "nonpayable",
      "type": "function"
    },
    {
      "inputs": [
        {
          "internalType": "uint256",
          "name": "age",
          "type": "uint256"
        },
        {
          "internalType": "string",
          "name": "name",
          "type": "string"
        },
        {
          "internalType": "string",
          "name": "lastname",
          "type": "string"
        },
        {
          "internalType": "string",
          "name": "email",
          "type": "string"
        },
        {
          "internalType": "bool",
          "name": "married",
          "type": "bool"
        }
      ],
      "name": "setPersonData",
      "outputs": [],
      "stateMutability": "nonpayable",
      "type": "function"
    },
    {
      "inputs": [
        {
          "internalType": "string",
          "name": "item",
          "type": "string"
        }
      ],
      "name": "setListItem",
      "outputs": [],
      "stateMutability": "nonpayable",
      "type": "function"
    },
    {
      "inputs": [],
      "name": "getLengthList",
      "outputs": [
        {
          "internalType": "uint256",
          "name": "l",
          "type": "uint256"
        }
      ],
      "stateMutability": "view",
      "type": "function"
    },
    {
      "inputs": [
        {
          "internalType": "string",
          "name": "el",
          "type": "string"
        }
      ],
      "name": "getArrayElement",
      "outputs": [
        {
          "internalType": "string",
          "name": "theElement",
          "type": "string"
        },
        {
          "internalType": "bool",
          "name": "isTheSame",
          "type": "bool"
        }
      ],
      "stateMutability": "view",
      "type": "function"
    },
    {
      "inputs": [
        {
          "internalType": "string",
          "name": "data",
          "type": "string"
        }
      ],
      "name": "setSecondListImte",
      "outputs": [],
      "stateMutability": "nonpayable",
      "type": "function"
    },
    {
      "inputs": [],
      "name": "getSecondListLength",
      "outputs": [
        {
          "internalType": "uint256",
          "name": "l",
          "type": "uint256"
        }
      ],
      "stateMutability": "view",
      "type": "function"
    },
    {
      "inputs": [
        {
          "internalType": "string",
          "name": "data",
          "type": "string"
        }
      ],
      "name": "getElementFromSecondList",
      "outputs": [
        {
          "internalType": "string",
          "name": "value",
          "type": "string"
        },
        {
          "internalType": "bool",
          "name": "isIncluded",
          "type": "bool"
        }
      ],
      "stateMutability": "view",
      "type": "function"
    }
  ],
  "bytecode": "0x608060405234801561001057600080fd5b506112bb806100206000396000f3fe608060405234801561001057600080fd5b50600436106100a85760003560e01c80638ada2cf6116100715780638ada2cf6146101515780639209dab314610185578063bb2077f0146101a1578063c4faca7a146101d1578063c85f6c8014610202578063d5e4bfb414610233576100a8565b8062013685146100ad57806327e235e3146100c957806357100cc3146100f95780637e2929731461011757806382ab890a14610135575b600080fd5b6100c760048036038101906100c29190610cc0565b61024f565b005b6100e360048036038101906100de9190610c97565b61028e565b6040516100f09190610f61565b60405180910390f35b6101016102a6565b60405161010e9190610f61565b60405180910390f35b61011f6102b3565b60405161012c9190610f61565b60405180910390f35b61014f600480360381019061014a9190610d01565b6102c0565b005b61016b60048036038101906101669190610c97565b610306565b60405161017c959493929190610f7c565b60405180910390f35b61019f600480360381019061019a9190610d2a565b6104e1565b005b6101bb60048036038101906101b69190610c97565b610747565b6040516101c89190610f0f565b60405180910390f35b6101eb60048036038101906101e69190610cc0565b6107ed565b6040516101f9929190610f31565b60405180910390f35b61021c60048036038101906102179190610cc0565b610914565b60405161022a929190610f31565b60405180910390f35b61024d60048036038101906102489190610cc0565b610a88565b005b60048190806001815401808255809150506001900390600052602060002001600090919091909150908051906020019061028a929190610ac7565b5050565b60006020528060005260406000206000915090505481565b6000600380549050905090565b6000600480549050905090565b806000803373ffffffffffffffffffffffffffffffffffffffff1673ffffffffffffffffffffffffffffffffffffffff1681526020019081526020016000208190555050565b600160205280600052604060002060009150905080600001549080600101805461032f90611127565b80601f016020809104026020016040519081016040528092919081815260200182805461035b90611127565b80156103a85780601f1061037d576101008083540402835291602001916103a8565b820191906000526020600020905b81548152906001019060200180831161038b57829003601f168201915b5050505050908060020180546103bd90611127565b80601f01602080910402602001604051908101604052809291908181526020018280546103e990611127565b80156104365780601f1061040b57610100808354040283529160200191610436565b820191906000526020600020905b81548152906001019060200180831161041957829003601f168201915b50505050509080600301805461044b90611127565b80601f016020809104026020016040519081016040528092919081815260200182805461047790611127565b80156104c45780601f10610499576101008083540402835291602001916104c4565b820191906000526020600020905b8154815290600101906020018083116104a757829003601f168201915b5050505050908060040160009054906101000a900460ff16905085565b6000600160003373ffffffffffffffffffffffffffffffffffffffff1673ffffffffffffffffffffffffffffffffffffffff1681526020019081526020016000206040518060a00160405290816000820154815260200160018201805461054790611127565b80601f016020809104026020016040519081016040528092919081815260200182805461057390611127565b80156105c05780601f10610595576101008083540402835291602001916105c0565b820191906000526020600020905b8154815290600101906020018083116105a357829003601f168201915b505050505081526020016002820180546105d990611127565b80601f016020809104026020016040519081016040528092919081815260200182805461060590611127565b80156106525780601f1061062757610100808354040283529160200191610652565b820191906000526020600020905b81548152906001019060200180831161063557829003601f168201915b5050505050815260200160038201805461066b90611127565b80601f016020809104026020016040519081016040528092919081815260200182805461069790611127565b80156106e45780601f106106b9576101008083540402835291602001916106e4565b820191906000526020600020905b8154815290600101906020018083116106c757829003601f168201915b505050505081526020016004820160009054906101000a900460ff16151515158152505090508481602001819052508581600001818152505083816040018190525082816060018190525081816080019015159081151581525050505050505050565b600260205280600052604060002060009150905080600001805461076a90611127565b80601f016020809104026020016040519081016040528092919081815260200182805461079690611127565b80156107e35780601f106107b8576101008083540402835291602001916107e3565b820191906000526020600020905b8154815290600101906020018083116107c657829003601f168201915b5050505050905081565b6060600080600090505b60038054905081101561090d57600060038281548110610840577f4e487b7100000000000000000000000000000000000000000000000000000000600052603260045260246000fd5b90600052602060002001805461085590611127565b80601f016020809104026020016040519081016040528092919081815260200182805461088190611127565b80156108ce5780601f106108a3576101008083540402835291602001916108ce565b820191906000526020600020905b8154815290600101906020018083116108b157829003601f168201915b505050505090508480519060200120818051906020012014156108f95780600193509350505061090f565b50808061090590611159565b9150506107f7565b505b915091565b6060600080600090505b600480549050811015610a815783805190602001206004828154811061096d577f4e487b7100000000000000000000000000000000000000000000000000000000600052603260045260246000fd5b906000526020600020016040516109849190610ef8565b60405180910390201415610a6e57600481815481106109cc577f4e487b7100000000000000000000000000000000000000000000000000000000600052603260045260246000fd5b9060005260206000200160018180546109e490611127565b80601f0160208091040260200160405190810160405280929190818152602001828054610a1090611127565b8015610a5d5780601f10610a3257610100808354040283529160200191610a5d565b820191906000526020600020905b815481529060010190602001808311610a4057829003601f168201915b505050505091509250925050610a83565b8080610a7990611159565b91505061091e565b505b915091565b600381908060018154018082558091505060019003906000526020600020016000909190919091509080519060200190610ac3929190610b4d565b5050565b828054610ad390611127565b90600052602060002090601f016020900481019282610af55760008555610b3c565b82601f10610b0e57805160ff1916838001178555610b3c565b82800160010185558215610b3c579182015b82811115610b3b578251825591602001919060010190610b20565b5b509050610b499190610bd3565b5090565b828054610b5990611127565b90600052602060002090601f016020900481019282610b7b5760008555610bc2565b82601f10610b9457805160ff1916838001178555610bc2565b82800160010185558215610bc2579182015b82811115610bc1578251825591602001919060010190610ba6565b5b509050610bcf9190610bd3565b5090565b5b80821115610bec576000816000905550600101610bd4565b5090565b6000610c03610bfe84611015565b610fe4565b905082815260208101848484011115610c1b57600080fd5b610c268482856110e5565b509392505050565b600081359050610c3d81611240565b92915050565b600081359050610c5281611257565b92915050565b600082601f830112610c6957600080fd5b8135610c79848260208601610bf0565b91505092915050565b600081359050610c918161126e565b92915050565b600060208284031215610ca957600080fd5b6000610cb784828501610c2e565b91505092915050565b600060208284031215610cd257600080fd5b600082013567ffffffffffffffff811115610cec57600080fd5b610cf884828501610c58565b91505092915050565b600060208284031215610d1357600080fd5b6000610d2184828501610c82565b91505092915050565b600080600080600060a08688031215610d4257600080fd5b6000610d5088828901610c82565b955050602086013567ffffffffffffffff811115610d6d57600080fd5b610d7988828901610c58565b945050604086013567ffffffffffffffff811115610d9657600080fd5b610da288828901610c58565b935050606086013567ffffffffffffffff811115610dbf57600080fd5b610dcb88828901610c58565b9250506080610ddc88828901610c43565b9150509295509295909350565b610df2816110af565b82525050565b6000610e038261105a565b610e0d8185611070565b9350610e1d8185602086016110f4565b610e268161122f565b840191505092915050565b60008154610e3e81611127565b610e488186611081565b94506001821660008114610e635760018114610e7457610ea7565b60ff19831686528186019350610ea7565b610e7d85611045565b60005b83811015610e9f57815481890152600182019150602081019050610e80565b838801955050505b50505092915050565b6000610ebb82611065565b610ec5818561108c565b9350610ed58185602086016110f4565b610ede8161122f565b840191505092915050565b610ef2816110db565b82525050565b6000610f048284610e31565b915081905092915050565b60006020820190508181036000830152610f298184610df8565b905092915050565b60006040820190508181036000830152610f4b8185610eb0565b9050610f5a6020830184610de9565b9392505050565b6000602082019050610f766000830184610ee9565b92915050565b600060a082019050610f916000830188610ee9565b8181036020830152610fa38187610eb0565b90508181036040830152610fb78186610eb0565b90508181036060830152610fcb8185610eb0565b9050610fda6080830184610de9565b9695505050505050565b6000604051905081810181811067ffffffffffffffff8211171561100b5761100a611200565b5b8060405250919050565b600067ffffffffffffffff8211156110305761102f611200565b5b601f19601f8301169050602081019050919050565b60008190508160005260206000209050919050565b600081519050919050565b600081519050919050565b600082825260208201905092915050565b600081905092915050565b600082825260208201905092915050565b60006110a8826110bb565b9050919050565b60008115159050919050565b600073ffffffffffffffffffffffffffffffffffffffff82169050919050565b6000819050919050565b82818337600083830152505050565b60005b838110156111125780820151818401526020810190506110f7565b83811115611121576000848401525b50505050565b6000600282049050600182168061113f57607f821691505b60208210811415611153576111526111d1565b5b50919050565b6000611164826110db565b91507fffffffffffffffffffffffffffffffffffffffffffffffffffffffffffffffff821415611197576111966111a2565b5b600182019050919050565b7f4e487b7100000000000000000000000000000000000000000000000000000000600052601160045260246000fd5b7f4e487b7100000000000000000000000000000000000000000000000000000000600052602260045260246000fd5b7f4e487b7100000000000000000000000000000000000000000000000000000000600052604160045260246000fd5b6000601f19601f8301169050919050565b6112498161109d565b811461125457600080fd5b50565b611260816110af565b811461126b57600080fd5b50565b611277816110db565b811461128257600080fd5b5056fea26469706673582212201365132befb8016b2f7968e3e73d1f2fa21f45fb4375190ab6a5b7bc9347920664736f6c63430008000033",
  "immutableReferences": {},
  "source": "pragma solidity >=0.4.16 <0.9.0;\n\ncontract Test2 {\n    struct Person {\n        uint256 age;\n        string name;\n        string lastname;\n        string email;\n        bool married;\n    }\n\n    struct Skills {\n        bytes listOfSkills;\n    }\n\n    mapping(address => uint256) public balances;\n\n    mapping(address => Person) public persons;\n    mapping(address => Skills) public personSkills;\n\n    string[] list;\n\n    // this would be a bytes of data\n    bytes[] secondList;\n\n    function update(uint256 newBalance) public {\n        balances[msg.sender] = newBalance;\n    }\n\n    function setPersonData(\n        uint256 age,\n        string memory name,\n        string memory lastname,\n        string memory email,\n        bool married\n    ) public {\n        Person memory p = persons[msg.sender];\n        p.name = name;\n        p.age = age;\n        p.lastname = lastname;\n        p.email = email;\n        p.married = married;\n    }\n\n    function setListItem(string memory item) public {\n        list.push(item);\n    }\n\n    function getLengthList() public view returns (uint256 l) {\n        return list.length;\n    }\n\n    function getArrayElement(string memory el)\n        public\n        view\n        returns (string memory theElement, bool isTheSame)\n    {\n        for (uint256 i = 0; i < list.length; i++) {\n            string memory value = list[i];\n            // note that is not safe to deal with this kind of data\n            // on solidity\n            if (keccak256(bytes(value)) == keccak256(bytes(el))) {\n                return (value, true);\n            }\n        }\n    }\n\n    function setSecondListImte(string memory data) public {\n        secondList.push(bytes(data));\n    }\n\n    function getSecondListLength() public view returns (uint256 l) {\n        return secondList.length;\n    }\n\n    function getElementFromSecondList(string memory data)\n        public\n        view\n        returns (string memory value, bool isIncluded)\n    {\n        for (uint256 i = 0; i < secondList.length; i++) {\n            if (keccak256(secondList[i]) == keccak256(bytes(data))) {\n                return (string(secondList[i]), true);\n            }\n        }\n    }\n}\n",
  "sourcePath": "/home/nrriquel/Documents/dapps/BIA/contractsTest/contracts/test2.sol",
  "compiler": {
    "name": "solc",
    "version": "0.8.0+commit.c7dfd78e.Emscripten.clang"
  },
  "schemaVersion": "3.3.4",
  "updatedAt": "2021-04-11T04:24:33.543Z",
  "devdoc": {
    "kind": "dev",
    "methods": {},
    "version": 1
  },
  "userdoc": {
    "kind": "user",
    "methods": {},
    "version": 1
  }
}