{
  "contractName": "Airlines",
  "abi": [
    {
      "inputs": [],
      "stateMutability": "payable",
      "type": "constructor",
      "payable": true
    },
    {
      "inputs": [
        {
          "internalType": "address",
          "name": "",
          "type": "address"
        }
      ],
      "name": "balanceDetails",
      "outputs": [
        {
          "internalType": "uint256",
          "name": "escrow",
          "type": "uint256"
        },
        {
          "internalType": "uint256",
          "name": "status",
          "type": "uint256"
        },
        {
          "internalType": "uint256",
          "name": "hashOfDetails",
          "type": "uint256"
        }
      ],
      "stateMutability": "view",
      "type": "function",
      "constant": true
    },
    {
      "inputs": [],
      "name": "register",
      "outputs": [],
      "stateMutability": "payable",
      "type": "function",
      "payable": true
    },
    {
      "inputs": [
        {
          "internalType": "address payable",
          "name": "AirlineZ",
          "type": "address"
        }
      ],
      "name": "unregister",
      "outputs": [],
      "stateMutability": "nonpayable",
      "type": "function"
    },
    {
      "inputs": [
        {
          "internalType": "address",
          "name": "toAirline",
          "type": "address"
        },
        {
          "internalType": "uint256",
          "name": "hashOfDetails",
          "type": "uint256"
        }
      ],
      "name": "request",
      "outputs": [],
      "stateMutability": "nonpayable",
      "type": "function"
    },
    {
      "inputs": [
        {
          "internalType": "address",
          "name": "fromAirline",
          "type": "address"
        },
        {
          "internalType": "uint256",
          "name": "hashOfDetails",
          "type": "uint256"
        },
        {
          "internalType": "uint256",
          "name": "done",
          "type": "uint256"
        }
      ],
      "name": "response",
      "outputs": [],
      "stateMutability": "nonpayable",
      "type": "function"
    },
    {
      "inputs": [
        {
          "internalType": "address payable",
          "name": "toAirline",
          "type": "address"
        }
      ],
      "name": "settlePayment",
      "outputs": [],
      "stateMutability": "payable",
      "type": "function",
      "payable": true
    }
  ],
  "bytecode": "0x6080604052336000806101000a81548173ffffffffffffffffffffffffffffffffffffffff021916908373ffffffffffffffffffffffffffffffffffffffff1602179055506001600260003373ffffffffffffffffffffffffffffffffffffffff1673ffffffffffffffffffffffffffffffffffffffff1681526020019081526020016000208190555034600160003373ffffffffffffffffffffffffffffffffffffffff1673ffffffffffffffffffffffffffffffffffffffff168152602001908152602001600020600001819055506108f9806100df6000396000f3fe6080604052600436106100555760003560e01c80631aa3a0081461005a5780632109dc88146100645780632ec2c246146100a85780636d1954e0146100f9578063a3aa19131461015e578063c8c01a55146101d1575b600080fd5b61006261022c565b005b6100a66004803603602081101561007a57600080fd5b81019080803573ffffffffffffffffffffffffffffffffffffffff1690602001909291905050506102c0565b005b3480156100b457600080fd5b506100f7600480360360208110156100cb57600080fd5b81019080803573ffffffffffffffffffffffffffffffffffffffff169060200190929190505050610478565b005b34801561010557600080fd5b5061015c6004803603606081101561011c57600080fd5b81019080803573ffffffffffffffffffffffffffffffffffffffff1690602001909291908035906020019092919080359060200190929190505050610643565b005b34801561016a57600080fd5b506101ad6004803603602081101561018157600080fd5b81019080803573ffffffffffffffffffffffffffffffffffffffff16906020019092919050505061076e565b60405180848152602001838152602001828152602001935050505060405180910390f35b3480156101dd57600080fd5b5061022a600480360360408110156101f457600080fd5b81019080803573ffffffffffffffffffffffffffffffffffffffff16906020019092919080359060200190929190505050610798565b005b60003390506001600260008373ffffffffffffffffffffffffffffffffffffffff1673ffffffffffffffffffffffffffffffffffffffff1681526020019081526020016000208190555034600160003373ffffffffffffffffffffffffffffffffffffffff1673ffffffffffffffffffffffffffffffffffffffff1681526020019081526020016000206000018190555050565b6001600260003373ffffffffffffffffffffffffffffffffffffffff1673ffffffffffffffffffffffffffffffffffffffff168152602001908152602001600020541461030c57600080fd5b6000339050600034905080600160008573ffffffffffffffffffffffffffffffffffffffff1673ffffffffffffffffffffffffffffffffffffffff1681526020019081526020016000206000015401600160008573ffffffffffffffffffffffffffffffffffffffff1673ffffffffffffffffffffffffffffffffffffffff1681526020019081526020016000206000018190555080600160008473ffffffffffffffffffffffffffffffffffffffff1673ffffffffffffffffffffffffffffffffffffffff1681526020019081526020016000206000015403600160008473ffffffffffffffffffffffffffffffffffffffff1673ffffffffffffffffffffffffffffffffffffffff168152602001908152602001600020600001819055508273ffffffffffffffffffffffffffffffffffffffff166108fc829081150290604051600060405180830381858888f19350505050158015610472573d6000803e3d6000fd5b50505050565b6000809054906101000a900473ffffffffffffffffffffffffffffffffffffffff1673ffffffffffffffffffffffffffffffffffffffff163373ffffffffffffffffffffffffffffffffffffffff16146104d157600080fd5b3373ffffffffffffffffffffffffffffffffffffffff166000809054906101000a900473ffffffffffffffffffffffffffffffffffffffff1673ffffffffffffffffffffffffffffffffffffffff161461052a57600080fd5b6000600260008373ffffffffffffffffffffffffffffffffffffffff1673ffffffffffffffffffffffffffffffffffffffff168152602001908152602001600020819055508073ffffffffffffffffffffffffffffffffffffffff166108fc600160008473ffffffffffffffffffffffffffffffffffffffff1673ffffffffffffffffffffffffffffffffffffffff168152602001908152602001600020600001549081150290604051600060405180830381858888f193505050501580156105f7573d6000803e3d6000fd5b506000600160008373ffffffffffffffffffffffffffffffffffffffff1673ffffffffffffffffffffffffffffffffffffffff1681526020019081526020016000206000018190555050565b6001600260003373ffffffffffffffffffffffffffffffffffffffff1673ffffffffffffffffffffffffffffffffffffffff168152602001908152602001600020541461068f57600080fd5b6001600260008573ffffffffffffffffffffffffffffffffffffffff1673ffffffffffffffffffffffffffffffffffffffff16815260200190815260200160002054146106db57600080fd5b80600160003373ffffffffffffffffffffffffffffffffffffffff1673ffffffffffffffffffffffffffffffffffffffff1681526020019081526020016000206001018190555081600160008573ffffffffffffffffffffffffffffffffffffffff1673ffffffffffffffffffffffffffffffffffffffff16815260200190815260200160002060020181905550505050565b60016020528060005260406000206000915090508060000154908060010154908060020154905083565b6001600260003373ffffffffffffffffffffffffffffffffffffffff1673ffffffffffffffffffffffffffffffffffffffff16815260200190815260200160002054146107e457600080fd5b6001600260008473ffffffffffffffffffffffffffffffffffffffff1673ffffffffffffffffffffffffffffffffffffffff168152602001908152602001600020541461083057600080fd5b6000600160003373ffffffffffffffffffffffffffffffffffffffff1673ffffffffffffffffffffffffffffffffffffffff1681526020019081526020016000206001018190555080600160003373ffffffffffffffffffffffffffffffffffffffff1673ffffffffffffffffffffffffffffffffffffffff16815260200190815260200160002060020181905550505056fea2646970667358221220faaa8d57d38a283328459179c41460449584ef2838079f196f813939cddfebb764736f6c63430006000033",
  "source": "pragma solidity ^0.6.0;\n\ncontract Airlines {\n    address chairperson;\n    struct details {\n        uint256 escrow;\n        uint256 status;\n        uint256 hashOfDetails;\n    }\n\n    mapping(address => details) public balanceDetails;\n    mapping(address => uint256) membership;\n\n    modifier onlyChairperson {\n        require(msg.sender == chairperson);\n        _;\n    }\n\n    modifier onlyMember {\n        require(membership[msg.sender] == 1);\n        _;\n    }\n\n    constructor() public payable {\n        chairperson = msg.sender;\n        membership[msg.sender] = 1;\n        balanceDetails[msg.sender].escrow = msg.value;\n    }\n\n    function register() public payable {\n        address AirlineA = msg.sender;\n        membership[AirlineA] = 1;\n        balanceDetails[msg.sender].escrow = msg.value;\n    }\n\n    function unregister(address payable AirlineZ) public onlyChairperson {\n        if (chairperson != msg.sender) {\n            revert();\n        }\n        membership[AirlineZ] = 0;\n        // return escrow to leaving airline: verify other conditions\n        AirlineZ.transfer(balanceDetails[AirlineZ].escrow);\n        balanceDetails[AirlineZ].escrow = 0;\n    }\n\n    function request(address toAirline, uint256 hashOfDetails)\n        public\n        onlyMember\n    {\n        if (membership[toAirline] != 1) {\n            revert();\n        }\n        balanceDetails[msg.sender].status = 0;\n        balanceDetails[msg.sender].hashOfDetails = hashOfDetails;\n    }\n\n    function response(\n        address fromAirline,\n        uint256 hashOfDetails,\n        uint256 done\n    ) public onlyMember {\n        if (membership[fromAirline] != 1) {\n            revert();\n        }\n        balanceDetails[msg.sender].status = done;\n        balanceDetails[fromAirline].hashOfDetails = hashOfDetails;\n    }\n\n    function settlePayment(address payable toAirline)\n        public\n        payable\n        onlyMember\n    {\n        address fromAirline = msg.sender;\n        uint256 amt = msg.value;\n        balanceDetails[toAirline].escrow =\n            balanceDetails[toAirline].escrow +\n            amt;\n        balanceDetails[fromAirline].escrow =\n            balanceDetails[fromAirline].escrow -\n            amt;\n        toAirline.transfer(amt);\n    }\n}\n",
  "sourcePath": "/home/nrriquel/Documents/dapps/blockchainInAction/contracts/Airlines.sol",
  "compiler": {
    "name": "solc",
    "version": "0.6.0+commit.26b70077.Emscripten.clang"
  },
  "schemaVersion": "3.3.4",
  "updatedAt": "2021-04-03T02:18:34.892Z",
  "networkType": "ethereum",
  "devdoc": {
    "methods": {}
  },
  "userdoc": {
    "methods": {}
  }
}